{
  "_format": "hh-sol-artifact-1",
  "contractName": "PremiumAccess",
  "sourceName": "contracts/PremiumAccess.sol",
  "abi": [
    {
      "inputs": [
        {
          "internalType": "address",
          "name": "_eduTokenAddress",
          "type": "address"
        }
      ],
      "stateMutability": "nonpayable",
      "type": "constructor"
    },
    {
      "anonymous": false,
      "inputs": [
        {
          "indexed": false,
          "internalType": "uint256",
          "name": "newFee",
          "type": "uint256"
        }
      ],
      "name": "AccessFeeUpdated",
      "type": "event"
    },
    {
      "anonymous": false,
      "inputs": [
        {
          "indexed": true,
          "internalType": "address",
          "name": "user",
          "type": "address"
        },
        {
          "indexed": false,
          "internalType": "uint256",
          "name": "amount",
          "type": "uint256"
        }
      ],
      "name": "AccessGranted",
      "type": "event"
    },
    {
      "anonymous": false,
      "inputs": [
        {
          "indexed": true,
          "internalType": "address",
          "name": "student",
          "type": "address"
        },
        {
          "indexed": false,
          "internalType": "uint256",
          "name": "amount",
          "type": "uint256"
        }
      ],
      "name": "EduTokensClaimed",
      "type": "event"
    },
    {
      "anonymous": false,
      "inputs": [
        {
          "indexed": true,
          "internalType": "address",
          "name": "owner",
          "type": "address"
        },
        {
          "indexed": false,
          "internalType": "uint256",
          "name": "amount",
          "type": "uint256"
        }
      ],
      "name": "FundsWithdrawn",
      "type": "event"
    },
    {
      "anonymous": false,
      "inputs": [
        {
          "indexed": true,
          "internalType": "address",
          "name": "student",
          "type": "address"
        },
        {
          "indexed": false,
          "internalType": "uint256",
          "name": "points",
          "type": "uint256"
        }
      ],
      "name": "PointsAdded",
      "type": "event"
    },
    {
      "inputs": [],
      "name": "EDU_REWARD",
      "outputs": [
        {
          "internalType": "uint256",
          "name": "",
          "type": "uint256"
        }
      ],
      "stateMutability": "view",
      "type": "function"
    },
    {
      "inputs": [],
      "name": "POINTS_REQUIRED",
      "outputs": [
        {
          "internalType": "uint256",
          "name": "",
          "type": "uint256"
        }
      ],
      "stateMutability": "view",
      "type": "function"
    },
    {
      "inputs": [],
      "name": "accessFee",
      "outputs": [
        {
          "internalType": "uint256",
          "name": "",
          "type": "uint256"
        }
      ],
      "stateMutability": "view",
      "type": "function"
    },
    {
      "inputs": [
        {
          "internalType": "address",
          "name": "_student",
          "type": "address"
        },
        {
          "internalType": "uint256",
          "name": "_points",
          "type": "uint256"
        }
      ],
      "name": "addPoints",
      "outputs": [],
      "stateMutability": "nonpayable",
      "type": "function"
    },
    {
      "inputs": [],
      "name": "buyAccess",
      "outputs": [],
      "stateMutability": "nonpayable",
      "type": "function"
    },
    {
      "inputs": [
        {
          "internalType": "address",
          "name": "_user",
          "type": "address"
        }
      ],
      "name": "checkAccess",
      "outputs": [
        {
          "internalType": "bool",
          "name": "",
          "type": "bool"
        }
      ],
      "stateMutability": "view",
      "type": "function"
    },
    {
      "inputs": [],
      "name": "claimEduTokens",
      "outputs": [],
      "stateMutability": "nonpayable",
      "type": "function"
    },
    {
      "inputs": [],
      "name": "eduToken",
      "outputs": [
        {
          "internalType": "contract IERC20",
          "name": "",
          "type": "address"
        }
      ],
      "stateMutability": "view",
      "type": "function"
    },
    {
      "inputs": [
        {
          "internalType": "address",
          "name": "_student",
          "type": "address"
        }
      ],
      "name": "getPoints",
      "outputs": [
        {
          "internalType": "uint256",
          "name": "",
          "type": "uint256"
        }
      ],
      "stateMutability": "view",
      "type": "function"
    },
    {
      "inputs": [
        {
          "internalType": "address",
          "name": "",
          "type": "address"
        }
      ],
      "name": "hasAccess",
      "outputs": [
        {
          "internalType": "bool",
          "name": "",
          "type": "bool"
        }
      ],
      "stateMutability": "view",
      "type": "function"
    },
    {
      "inputs": [],
      "name": "owner",
      "outputs": [
        {
          "internalType": "address",
          "name": "",
          "type": "address"
        }
      ],
      "stateMutability": "view",
      "type": "function"
    },
    {
      "inputs": [
        {
          "internalType": "uint256",
          "name": "_fee",
          "type": "uint256"
        }
      ],
      "name": "setAccessFee",
      "outputs": [],
      "stateMutability": "nonpayable",
      "type": "function"
    },
    {
      "inputs": [
        {
          "internalType": "address",
          "name": "",
          "type": "address"
        }
      ],
      "name": "studentPoints",
      "outputs": [
        {
          "internalType": "uint256",
          "name": "",
          "type": "uint256"
        }
      ],
      "stateMutability": "view",
      "type": "function"
    },
    {
      "inputs": [],
      "name": "withdrawFunds",
      "outputs": [],
      "stateMutability": "nonpayable",
      "type": "function"
    }
  ],
  "bytecode": "0x60c0604052678ac7230489e800006000553480156200001d57600080fd5b50604051620018533803806200185383398181016040528101906200004391906200011c565b8073ffffffffffffffffffffffffffffffffffffffff1660808173ffffffffffffffffffffffffffffffffffffffff16815250503373ffffffffffffffffffffffffffffffffffffffff1660a08173ffffffffffffffffffffffffffffffffffffffff1681525050506200014e565b600080fd5b600073ffffffffffffffffffffffffffffffffffffffff82169050919050565b6000620000e482620000b7565b9050919050565b620000f681620000d7565b81146200010257600080fd5b50565b6000815190506200011681620000eb565b92915050565b600060208284031215620001355762000134620000b2565b5b6000620001458482850162000105565b91505092915050565b60805160a051611699620001ba6000396000818161029d0152818161044a0152818161050e01528181610580015281816106ee01526108a301526000818161032d0152818161040e0152818161087f015281816109d201528181610b9f0152610c7c01526116996000f3fe608060405234801561001057600080fd5b50600436106100ea5760003560e01c80638da5cb5b1161008c578063cb4af8e411610066578063cb4af8e414610239578063d8a2d6ec14610257578063dfa7df8c14610261578063ee204abb1461026b576100ea565b80638da5cb5b146101cd57806395a078e8146101eb578063b4f028ae1461021b576100ea565b8063492b85cd116100c8578063492b85cd14610145578063507cd30f1461016357806353ca30cc1461017f5780638d878889146101af576100ea565b806324600fc3146100ef57806324a5f15a146100f9578063466a014614610115575b600080fd5b6100f761029b565b005b610113600480360381019061010e9190610e8c565b61057e565b005b61012f600480360381019061012a9190610f17565b610690565b60405161013c9190610f5f565b60405180910390f35b61014d6106e6565b60405161015a9190610f89565b60405180910390f35b61017d60048036038101906101789190610fa4565b6106ec565b005b61019960048036038101906101949190610f17565b610865565b6040516101a69190610f89565b60405180910390f35b6101b761087d565b6040516101c49190611043565b60405180910390f35b6101d56108a1565b6040516101e2919061106d565b60405180910390f35b61020560048036038101906102009190610f17565b6108c5565b6040516102129190610f5f565b60405180910390f35b6102236108e5565b6040516102309190610f89565b60405180910390f35b6102416108ea565b60405161024e9190610f89565b60405180910390f35b61025f6108f6565b005b610269610b0d565b005b61028560048036038101906102809190610f17565b610e08565b6040516102929190610f89565b60405180910390f35b7f000000000000000000000000000000000000000000000000000000000000000073ffffffffffffffffffffffffffffffffffffffff163373ffffffffffffffffffffffffffffffffffffffff1614610329576040517f08c379a0000000000000000000000000000000000000000000000000000000008152600401610320906110e5565b60405180910390fd5b60007f000000000000000000000000000000000000000000000000000000000000000073ffffffffffffffffffffffffffffffffffffffff166370a08231306040518263ffffffff1660e01b8152600401610384919061106d565b602060405180830381865afa1580156103a1573d6000803e3d6000fd5b505050506040513d601f19601f820116820180604052508101906103c5919061111a565b90506000811161040a576040517f08c379a000000000000000000000000000000000000000000000000000000000815260040161040190611193565b60405180910390fd5b60007f000000000000000000000000000000000000000000000000000000000000000073ffffffffffffffffffffffffffffffffffffffff1663a9059cbb7f0000000000000000000000000000000000000000000000000000000000000000846040518363ffffffff1660e01b81526004016104879291906111b3565b6020604051808303816000875af11580156104a6573d6000803e3d6000fd5b505050506040513d601f19601f820116820180604052508101906104ca9190611208565b90508061050c576040517f08c379a000000000000000000000000000000000000000000000000000000000815260040161050390611281565b60405180910390fd5b7f000000000000000000000000000000000000000000000000000000000000000073ffffffffffffffffffffffffffffffffffffffff167feaff4b37086828766ad3268786972c0cd24259d4c87a80f9d3963a3c3d999b0d836040516105729190610f89565b60405180910390a25050565b7f000000000000000000000000000000000000000000000000000000000000000073ffffffffffffffffffffffffffffffffffffffff163373ffffffffffffffffffffffffffffffffffffffff161461060c576040517f08c379a0000000000000000000000000000000000000000000000000000000008152600401610603906110e5565b60405180910390fd5b6000811161064f576040517f08c379a0000000000000000000000000000000000000000000000000000000008152600401610646906112ed565b60405180910390fd5b806000819055507f8c8ef33419ec058f5a18ecb3bc874d7c00a2743ed33731f53d63f16eb61ee8e1816040516106859190610f89565b60405180910390a150565b6000600160008373ffffffffffffffffffffffffffffffffffffffff1673ffffffffffffffffffffffffffffffffffffffff16815260200190815260200160002060009054906101000a900460ff169050919050565b60005481565b7f000000000000000000000000000000000000000000000000000000000000000073ffffffffffffffffffffffffffffffffffffffff163373ffffffffffffffffffffffffffffffffffffffff161461077a576040517f08c379a0000000000000000000000000000000000000000000000000000000008152600401610771906110e5565b60405180910390fd5b600081116107bd576040517f08c379a00000000000000000000000000000000000000000000000000000000081526004016107b490611359565b60405180910390fd5b80600260008473ffffffffffffffffffffffffffffffffffffffff1673ffffffffffffffffffffffffffffffffffffffff168152602001908152602001600020600082825461080c91906113a8565b925050819055508173ffffffffffffffffffffffffffffffffffffffff167f0fe6fcb45adaaa54f7e3491f6a7964049817f1e437f33587e634a4629fbcf3a6826040516108599190610f89565b60405180910390a25050565b60026020528060005260406000206000915090505481565b7f000000000000000000000000000000000000000000000000000000000000000081565b7f000000000000000000000000000000000000000000000000000000000000000081565b60016020528060005260406000206000915054906101000a900460ff1681565b606481565b670de0b6b3a764000081565b6064600260003373ffffffffffffffffffffffffffffffffffffffff1673ffffffffffffffffffffffffffffffffffffffff168152602001908152602001600020541015610979576040517f08c379a000000000000000000000000000000000000000000000000000000000815260040161097090611428565b60405180910390fd5b6064600260003373ffffffffffffffffffffffffffffffffffffffff1673ffffffffffffffffffffffffffffffffffffffff16815260200190815260200160002060008282546109c99190611448565b925050819055507f000000000000000000000000000000000000000000000000000000000000000073ffffffffffffffffffffffffffffffffffffffff1663a9059cbb33670de0b6b3a76400006040518363ffffffff1660e01b8152600401610a339291906111b3565b6020604051808303816000875af1158015610a52573d6000803e3d6000fd5b505050506040513d601f19601f82011682018060405250810190610a769190611208565b610ab5576040517f08c379a0000000000000000000000000000000000000000000000000000000008152600401610aac906114c8565b60405180910390fd5b3373ffffffffffffffffffffffffffffffffffffffff167f5c4071838891c0c76308af2921a334e5ebe41ddbc059bfda376e1595da9ea104670de0b6b3a7640000604051610b039190610f89565b60405180910390a2565b600160003373ffffffffffffffffffffffffffffffffffffffff1673ffffffffffffffffffffffffffffffffffffffff16815260200190815260200160002060009054906101000a900460ff1615610b9a576040517f08c379a0000000000000000000000000000000000000000000000000000000008152600401610b9190611534565b60405180910390fd5b6000547f000000000000000000000000000000000000000000000000000000000000000073ffffffffffffffffffffffffffffffffffffffff166370a08231336040518263ffffffff1660e01b8152600401610bf6919061106d565b602060405180830381865afa158015610c13573d6000803e3d6000fd5b505050506040513d601f19601f82011682018060405250810190610c37919061111a565b1015610c78576040517f08c379a0000000000000000000000000000000000000000000000000000000008152600401610c6f906115a0565b60405180910390fd5b60007f000000000000000000000000000000000000000000000000000000000000000073ffffffffffffffffffffffffffffffffffffffff166323b872dd33306000546040518463ffffffff1660e01b8152600401610cd9939291906115c0565b6020604051808303816000875af1158015610cf8573d6000803e3d6000fd5b505050506040513d601f19601f82011682018060405250810190610d1c9190611208565b905080610d5e576040517f08c379a0000000000000000000000000000000000000000000000000000000008152600401610d5590611643565b60405180910390fd5b60018060003373ffffffffffffffffffffffffffffffffffffffff1673ffffffffffffffffffffffffffffffffffffffff16815260200190815260200160002060006101000a81548160ff0219169083151502179055503373ffffffffffffffffffffffffffffffffffffffff167fb4c6779ceb4a20f448e76a0e11f39bd183cff9c9dbac53df6bfcc202e2eb32f1600054604051610dfd9190610f89565b60405180910390a250565b6000600260008373ffffffffffffffffffffffffffffffffffffffff1673ffffffffffffffffffffffffffffffffffffffff168152602001908152602001600020549050919050565b600080fd5b6000819050919050565b610e6981610e56565b8114610e7457600080fd5b50565b600081359050610e8681610e60565b92915050565b600060208284031215610ea257610ea1610e51565b5b6000610eb084828501610e77565b91505092915050565b600073ffffffffffffffffffffffffffffffffffffffff82169050919050565b6000610ee482610eb9565b9050919050565b610ef481610ed9565b8114610eff57600080fd5b50565b600081359050610f1181610eeb565b92915050565b600060208284031215610f2d57610f2c610e51565b5b6000610f3b84828501610f02565b91505092915050565b60008115159050919050565b610f5981610f44565b82525050565b6000602082019050610f746000830184610f50565b92915050565b610f8381610e56565b82525050565b6000602082019050610f9e6000830184610f7a565b92915050565b60008060408385031215610fbb57610fba610e51565b5b6000610fc985828601610f02565b9250506020610fda85828601610e77565b9150509250929050565b6000819050919050565b6000611009611004610fff84610eb9565b610fe4565b610eb9565b9050919050565b600061101b82610fee565b9050919050565b600061102d82611010565b9050919050565b61103d81611022565b82525050565b60006020820190506110586000830184611034565b92915050565b61106781610ed9565b82525050565b6000602082019050611082600083018461105e565b92915050565b600082825260208201905092915050565b7f4e6f7420746865206f776e657200000000000000000000000000000000000000600082015250565b60006110cf600d83611088565b91506110da82611099565b602082019050919050565b600060208201905081810360008301526110fe816110c2565b9050919050565b60008151905061111481610e60565b92915050565b6000602082840312156111305761112f610e51565b5b600061113e84828501611105565b91505092915050565b7f4e6f2045445520746f6b656e7320746f20776974686472617700000000000000600082015250565b600061117d601983611088565b915061118882611147565b602082019050919050565b600060208201905081810360008301526111ac81611170565b9050919050565b60006040820190506111c8600083018561105e565b6111d56020830184610f7a565b9392505050565b6111e581610f44565b81146111f057600080fd5b50565b600081519050611202816111dc565b92915050565b60006020828403121561121e5761121d610e51565b5b600061122c848285016111f3565b91505092915050565b7f5472616e73666572206661696c65640000000000000000000000000000000000600082015250565b600061126b600f83611088565b915061127682611235565b602082019050919050565b6000602082019050818103600083015261129a8161125e565b9050919050565b7f466565206d7573742062652067726561746572207468616e2030000000000000600082015250565b60006112d7601a83611088565b91506112e2826112a1565b602082019050919050565b60006020820190508181036000830152611306816112ca565b9050919050565b7f506f696e7473206d7573742062652067726561746572207468616e207a65726f600082015250565b6000611343602083611088565b915061134e8261130d565b602082019050919050565b6000602082019050818103600083015261137281611336565b9050919050565b7f4e487b7100000000000000000000000000000000000000000000000000000000600052601160045260246000fd5b60006113b382610e56565b91506113be83610e56565b92508282019050808211156113d6576113d5611379565b5b92915050565b7f4e6f7420656e6f75676820706f696e747320746f20636c61696d000000000000600082015250565b6000611412601a83611088565b915061141d826113dc565b602082019050919050565b6000602082019050818103600083015261144181611405565b9050919050565b600061145382610e56565b915061145e83610e56565b925082820390508181111561147657611475611379565b5b92915050565b7f546f6b656e207472616e73666572206661696c65640000000000000000000000600082015250565b60006114b2601583611088565b91506114bd8261147c565b602082019050919050565b600060208201905081810360008301526114e1816114a5565b9050919050565b7f416c726561647920686173206163636573730000000000000000000000000000600082015250565b600061151e601283611088565b9150611529826114e8565b602082019050919050565b6000602082019050818103600083015261154d81611511565b9050919050565b7f496e73756666696369656e74204544552062616c616e63650000000000000000600082015250565b600061158a601883611088565b915061159582611554565b602082019050919050565b600060208201905081810360008301526115b98161157d565b9050919050565b60006060820190506115d5600083018661105e565b6115e2602083018561105e565b6115ef6040830184610f7a565b949350505050565b7f45445520546f6b656e207472616e73666572206661696c656400000000000000600082015250565b600061162d601983611088565b9150611638826115f7565b602082019050919050565b6000602082019050818103600083015261165c81611620565b905091905056fea2646970667358221220f70f2eb9742e6586852eed42a2d5200f40897d5361c9f52b46bbf790fa5b18b964736f6c63430008140033",
  "linkReferences": {},
  "deployedLinkReferences": {}
}